{
	"_format": "hh-sol-artifact-1",
	"contractName": "MyEpicNFT",
	"sourceName": "contracts/MyEpicNFT.sol",
	"abi": [
		{
			"inputs": [],
			"stateMutability": "nonpayable",
			"type": "constructor"
		},
		{
			"anonymous": false,
			"inputs": [
				{
					"indexed": true,
					"internalType": "address",
					"name": "owner",
					"type": "address"
				},
				{
					"indexed": true,
					"internalType": "address",
					"name": "approved",
					"type": "address"
				},
				{
					"indexed": true,
					"internalType": "uint256",
					"name": "tokenId",
					"type": "uint256"
				}
			],
			"name": "Approval",
			"type": "event"
		},
		{
			"anonymous": false,
			"inputs": [
				{
					"indexed": true,
					"internalType": "address",
					"name": "owner",
					"type": "address"
				},
				{
					"indexed": true,
					"internalType": "address",
					"name": "operator",
					"type": "address"
				},
				{
					"indexed": false,
					"internalType": "bool",
					"name": "approved",
					"type": "bool"
				}
			],
			"name": "ApprovalForAll",
			"type": "event"
		},
		{
			"anonymous": false,
			"inputs": [
				{
					"indexed": true,
					"internalType": "address",
					"name": "from",
					"type": "address"
				},
				{
					"indexed": true,
					"internalType": "address",
					"name": "to",
					"type": "address"
				},
				{
					"indexed": true,
					"internalType": "uint256",
					"name": "tokenId",
					"type": "uint256"
				}
			],
			"name": "Transfer",
			"type": "event"
		},
		{
			"inputs": [
				{
					"internalType": "address",
					"name": "to",
					"type": "address"
				},
				{
					"internalType": "uint256",
					"name": "tokenId",
					"type": "uint256"
				}
			],
			"name": "approve",
			"outputs": [],
			"stateMutability": "nonpayable",
			"type": "function"
		},
		{
			"inputs": [
				{
					"internalType": "address",
					"name": "owner",
					"type": "address"
				}
			],
			"name": "balanceOf",
			"outputs": [
				{
					"internalType": "uint256",
					"name": "",
					"type": "uint256"
				}
			],
			"stateMutability": "view",
			"type": "function"
		},
		{
			"inputs": [
				{
					"internalType": "uint256",
					"name": "tokenId",
					"type": "uint256"
				}
			],
			"name": "getApproved",
			"outputs": [
				{
					"internalType": "address",
					"name": "",
					"type": "address"
				}
			],
			"stateMutability": "view",
			"type": "function"
		},
		{
			"inputs": [
				{
					"internalType": "address",
					"name": "owner",
					"type": "address"
				},
				{
					"internalType": "address",
					"name": "operator",
					"type": "address"
				}
			],
			"name": "isApprovedForAll",
			"outputs": [
				{
					"internalType": "bool",
					"name": "",
					"type": "bool"
				}
			],
			"stateMutability": "view",
			"type": "function"
		},
		{
			"inputs": [],
			"name": "makeAnEpicNFT",
			"outputs": [],
			"stateMutability": "nonpayable",
			"type": "function"
		},
		{
			"inputs": [],
			"name": "name",
			"outputs": [
				{
					"internalType": "string",
					"name": "",
					"type": "string"
				}
			],
			"stateMutability": "view",
			"type": "function"
		},
		{
			"inputs": [
				{
					"internalType": "uint256",
					"name": "tokenId",
					"type": "uint256"
				}
			],
			"name": "ownerOf",
			"outputs": [
				{
					"internalType": "address",
					"name": "",
					"type": "address"
				}
			],
			"stateMutability": "view",
			"type": "function"
		},
		{
			"inputs": [
				{
					"internalType": "uint256",
					"name": "tokenId",
					"type": "uint256"
				}
			],
			"name": "pickRandomFirstWord",
			"outputs": [
				{
					"internalType": "string",
					"name": "",
					"type": "string"
				}
			],
			"stateMutability": "view",
			"type": "function"
		},
		{
			"inputs": [
				{
					"internalType": "address",
					"name": "from",
					"type": "address"
				},
				{
					"internalType": "address",
					"name": "to",
					"type": "address"
				},
				{
					"internalType": "uint256",
					"name": "tokenId",
					"type": "uint256"
				}
			],
			"name": "safeTransferFrom",
			"outputs": [],
			"stateMutability": "nonpayable",
			"type": "function"
		},
		{
			"inputs": [
				{
					"internalType": "address",
					"name": "from",
					"type": "address"
				},
				{
					"internalType": "address",
					"name": "to",
					"type": "address"
				},
				{
					"internalType": "uint256",
					"name": "tokenId",
					"type": "uint256"
				},
				{
					"internalType": "bytes",
					"name": "_data",
					"type": "bytes"
				}
			],
			"name": "safeTransferFrom",
			"outputs": [],
			"stateMutability": "nonpayable",
			"type": "function"
		},
		{
			"inputs": [
				{
					"internalType": "address",
					"name": "operator",
					"type": "address"
				},
				{
					"internalType": "bool",
					"name": "approved",
					"type": "bool"
				}
			],
			"name": "setApprovalForAll",
			"outputs": [],
			"stateMutability": "nonpayable",
			"type": "function"
		},
		{
			"inputs": [
				{
					"internalType": "bytes4",
					"name": "interfaceId",
					"type": "bytes4"
				}
			],
			"name": "supportsInterface",
			"outputs": [
				{
					"internalType": "bool",
					"name": "",
					"type": "bool"
				}
			],
			"stateMutability": "view",
			"type": "function"
		},
		{
			"inputs": [],
			"name": "symbol",
			"outputs": [
				{
					"internalType": "string",
					"name": "",
					"type": "string"
				}
			],
			"stateMutability": "view",
			"type": "function"
		},
		{
			"inputs": [
				{
					"internalType": "uint256",
					"name": "tokenId",
					"type": "uint256"
				}
			],
			"name": "tokenURI",
			"outputs": [
				{
					"internalType": "string",
					"name": "",
					"type": "string"
				}
			],
			"stateMutability": "view",
			"type": "function"
		},
		{
			"inputs": [
				{
					"internalType": "address",
					"name": "from",
					"type": "address"
				},
				{
					"internalType": "address",
					"name": "to",
					"type": "address"
				},
				{
					"internalType": "uint256",
					"name": "tokenId",
					"type": "uint256"
				}
			],
			"name": "transferFrom",
			"outputs": [],
			"stateMutability": "nonpayable",
			"type": "function"
		}
	],
	"bytecode": "0x608060405260405180610160016040528061012f815260200162003c7861012f91396008908051906020019062000038929190620003f9565b506040518061010001604052806040518060400160405280600581526020017f496e64696100000000000000000000000000000000000000000000000000000081525081526020016040518060400160405280600981526020017f4175737472616c6961000000000000000000000000000000000000000000000081525081526020016040518060400160405280600281526020017f555300000000000000000000000000000000000000000000000000000000000081525081526020016040518060400160405280600281526020017f554b00000000000000000000000000000000000000000000000000000000000081525081526020016040518060400160405280600681526020017f4575726f7065000000000000000000000000000000000000000000000000000081525081526020016040518060400160405280600581526020017f456779707400000000000000000000000000000000000000000000000000000081525081526020016040518060400160405280600681526020017f4672616e6365000000000000000000000000000000000000000000000000000081525081526020016040518060400160405280600a81526020017f416e74617263746963610000000000000000000000000000000000000000000081525081525060099060086200022d9291906200048a565b503480156200023b57600080fd5b506040518060400160405280600681526020017f54657374465400000000000000000000000000000000000000000000000000008152506040518060400160405280600781526020017f54657374696e67000000000000000000000000000000000000000000000000008152508160009080519060200190620002c0929190620003f9565b508060019080519060200190620002d9929190620003f9565b505050620003276040518060400160405280601e81526020017f54686973206973206d79204e465420636f6e74726163742e20576f61682100008152506200032d60201b62000f2e1760201c565b620006ab565b620003cd81604051602401620003449190620005bf565b6040516020818303038152906040527f41304fac000000000000000000000000000000000000000000000000000000007bffffffffffffffffffffffffffffffffffffffffffffffffffffffff19166020820180517bffffffffffffffffffffffffffffffffffffffffffffffffffffffff8381831617835250505050620003d060201b60201c565b50565b60008151905060006a636f6e736f6c652e6c6f679050602083016000808483855afa5050505050565b828054620004079062000635565b90600052602060002090601f0160209004810192826200042b576000855562000477565b82601f106200044657805160ff191683800117855562000477565b8280016001018555821562000477579182015b828111156200047657825182559160200191906001019062000459565b5b509050620004869190620004f1565b5090565b828054828255906000526020600020908101928215620004de579160200282015b82811115620004dd578251829080519060200190620004cc929190620003f9565b5091602001919060010190620004ab565b5b509050620004ed919062000510565b5090565b5b808211156200050c576000816000905550600101620004f2565b5090565b5b808211156200053457600081816200052a919062000538565b5060010162000511565b5090565b508054620005469062000635565b6000825580601f106200055a57506200057b565b601f0160209004906000526020600020908101906200057a9190620004f1565b5b50565b60006200058b82620005e3565b620005978185620005ee565b9350620005a9818560208601620005ff565b620005b4816200069a565b840191505092915050565b60006020820190508181036000830152620005db81846200057e565b905092915050565b600081519050919050565b600082825260208201905092915050565b60005b838110156200061f57808201518184015260208101905062000602565b838111156200062f576000848401525b50505050565b600060028204905060018216806200064e57607f821691505b602082108114156200066557620006646200066b565b5b50919050565b7f4e487b7100000000000000000000000000000000000000000000000000000000600052602260045260246000fd5b6000601f19601f8301169050919050565b6135bd80620006bb6000396000f3fe608060405234801561001057600080fd5b50600436106100f55760003560e01c80636352211e11610097578063b88d4fde11610066578063b88d4fde14610296578063c87b56dd146102b2578063de9d132f146102e2578063e985e9c5146102ec576100f5565b80636352211e146101fc57806370a082311461022c57806395d89b411461025c578063a22cb4651461027a576100f5565b8063095ea7b3116100d3578063095ea7b31461017857806323b872dd146101945780632de38d68146101b057806342842e0e146101e0576100f5565b806301ffc9a7146100fa57806306fdde031461012a578063081812fc14610148575b600080fd5b610114600480360381019061010f919061225a565b61031c565b6040516101219190612e33565b60405180910390f35b6101326103fe565b60405161013f9190612e4e565b60405180910390f35b610162600480360381019061015d91906122ac565b610490565b60405161016f9190612dcc565b60405180910390f35b610192600480360381019061018d919061221e565b610515565b005b6101ae60048036038101906101a99190612118565b61062d565b005b6101ca60048036038101906101c591906122ac565b61068d565b6040516101d79190612e4e565b60405180910390f35b6101fa60048036038101906101f59190612118565b6107ab565b005b610216600480360381019061021191906122ac565b6107cb565b6040516102239190612dcc565b60405180910390f35b610246600480360381019061024191906120b3565b61087d565b60405161025391906130ae565b60405180910390f35b610264610935565b6040516102719190612e4e565b60405180910390f35b610294600480360381019061028f91906121e2565b6109c7565b005b6102b060048036038101906102ab9190612167565b610b48565b005b6102cc60048036038101906102c791906122ac565b610baa565b6040516102d99190612e4e565b60405180910390f35b6102ea610cfc565b005b610306600480360381019061030191906120dc565b610e9a565b6040516103139190612e33565b60405180910390f35b60007f80ac58cd000000000000000000000000000000000000000000000000000000007bffffffffffffffffffffffffffffffffffffffffffffffffffffffff1916827bffffffffffffffffffffffffffffffffffffffffffffffffffffffff191614806103e757507f5b5e139f000000000000000000000000000000000000000000000000000000007bffffffffffffffffffffffffffffffffffffffffffffffffffffffff1916827bffffffffffffffffffffffffffffffffffffffffffffffffffffffff1916145b806103f757506103f682610fc7565b5b9050919050565b60606000805461040d9061334d565b80601f01602080910402602001604051908101604052809291908181526020018280546104399061334d565b80156104865780601f1061045b57610100808354040283529160200191610486565b820191906000526020600020905b81548152906001019060200180831161046957829003601f168201915b5050505050905090565b600061049b82611031565b6104da576040517f08c379a00000000000000000000000000000000000000000000000000000000081526004016104d19061300e565b60405180910390fd5b6004600083815260200190815260200160002060009054906101000a900473ffffffffffffffffffffffffffffffffffffffff169050919050565b6000610520826107cb565b90508073ffffffffffffffffffffffffffffffffffffffff168373ffffffffffffffffffffffffffffffffffffffff161415610591576040517f08c379a00000000000000000000000000000000000000000000000000000000081526004016105889061306e565b60405180910390fd5b8073ffffffffffffffffffffffffffffffffffffffff166105b061109d565b73ffffffffffffffffffffffffffffffffffffffff1614806105df57506105de816105d961109d565b610e9a565b5b61061e576040517f08c379a000000000000000000000000000000000000000000000000000000000815260040161061590612f4e565b60405180910390fd5b61062883836110a5565b505050565b61063e61063861109d565b8261115e565b61067d576040517f08c379a00000000000000000000000000000000000000000000000000000000081526004016106749061308e565b60405180910390fd5b61068883838361123c565b505050565b606060006106c161069d84611498565b6040516020016106ad9190612d88565b604051602081830303815290604052611645565b9050600980549050816106d491906133c8565b905060098181548110610710577f4e487b7100000000000000000000000000000000000000000000000000000000600052603260045260246000fd5b9060005260206000200180546107259061334d565b80601f01602080910402602001604051908101604052809291908181526020018280546107519061334d565b801561079e5780601f106107735761010080835404028352916020019161079e565b820191906000526020600020905b81548152906001019060200180831161078157829003601f168201915b5050505050915050919050565b6107c683838360405180602001604052806000815250610b48565b505050565b6000806002600084815260200190815260200160002060009054906101000a900473ffffffffffffffffffffffffffffffffffffffff169050600073ffffffffffffffffffffffffffffffffffffffff168173ffffffffffffffffffffffffffffffffffffffff161415610874576040517f08c379a000000000000000000000000000000000000000000000000000000000815260040161086b90612f8e565b60405180910390fd5b80915050919050565b60008073ffffffffffffffffffffffffffffffffffffffff168273ffffffffffffffffffffffffffffffffffffffff1614156108ee576040517f08c379a00000000000000000000000000000000000000000000000000000000081526004016108e590612f6e565b60405180910390fd5b600360008373ffffffffffffffffffffffffffffffffffffffff1673ffffffffffffffffffffffffffffffffffffffff168152602001908152602001600020549050919050565b6060600180546109449061334d565b80601f01602080910402602001604051908101604052809291908181526020018280546109709061334d565b80156109bd5780601f10610992576101008083540402835291602001916109bd565b820191906000526020600020905b8154815290600101906020018083116109a057829003601f168201915b5050505050905090565b6109cf61109d565b73ffffffffffffffffffffffffffffffffffffffff168273ffffffffffffffffffffffffffffffffffffffff161415610a3d576040517f08c379a0000000000000000000000000000000000000000000000000000000008152600401610a3490612f0e565b60405180910390fd5b8060056000610a4a61109d565b73ffffffffffffffffffffffffffffffffffffffff1673ffffffffffffffffffffffffffffffffffffffff16815260200190815260200160002060008473ffffffffffffffffffffffffffffffffffffffff1673ffffffffffffffffffffffffffffffffffffffff16815260200190815260200160002060006101000a81548160ff0219169083151502179055508173ffffffffffffffffffffffffffffffffffffffff16610af761109d565b73ffffffffffffffffffffffffffffffffffffffff167f17307eab39ab6107e8899845ad3d59bd9653f200f220920489ca2b5937696c3183604051610b3c9190612e33565b60405180910390a35050565b610b59610b5361109d565b8361115e565b610b98576040517f08c379a0000000000000000000000000000000000000000000000000000000008152600401610b8f9061308e565b60405180910390fd5b610ba484848484611678565b50505050565b6060610bb582611031565b610bf4576040517f08c379a0000000000000000000000000000000000000000000000000000000008152600401610beb90612fee565b60405180910390fd5b6000600660008481526020019081526020016000208054610c149061334d565b80601f0160208091040260200160405190810160405280929190818152602001828054610c409061334d565b8015610c8d5780601f10610c6257610100808354040283529160200191610c8d565b820191906000526020600020905b815481529060010190602001808311610c7057829003601f168201915b505050505090506000610c9e6116d4565b9050600081511415610cb4578192505050610cf7565b600082511115610ce9578082604051602001610cd1929190612cb5565b60405160208183030381529060405292505050610cf7565b610cf2846116eb565b925050505b919050565b6000610d086007611792565b90506000610d158261068d565b604051602001610d259190612c9e565b6040516020818303038152906040529050600060088283604051602001610d4e93929190612cd9565b6040516020818303038152906040529050610d9d6040518060400160405280601581526020017f0a2d2d2d2d2d2d2d2d2d2d2d2d2d2d2d2d2d2d2d2d0000000000000000000000815250610f2e565b610da681610f2e565b610de46040518060400160405280601581526020017f2d2d2d2d2d2d2d2d2d2d2d2d2d2d2d2d2d2d2d2d0a0000000000000000000000815250610f2e565b6000610e1a8384610df4856117a0565b604051602001610e0693929190612d2b565b6040516020818303038152906040526117a0565b9050610e26338561195e565b610e2f8461197c565b600081604051602001610e429190612daa565b6040516020818303038152906040529050610e5d8582611a15565b610e6681610f2e565b610e706007611a89565b610e93604051806060016040528060258152602001613523602591398633611a9f565b5050505050565b6000600560008473ffffffffffffffffffffffffffffffffffffffff1673ffffffffffffffffffffffffffffffffffffffff16815260200190815260200160002060008373ffffffffffffffffffffffffffffffffffffffff1673ffffffffffffffffffffffffffffffffffffffff16815260200190815260200160002060009054906101000a900460ff16905092915050565b610fc481604051602401610f429190612e4e565b6040516020818303038152906040527f41304fac000000000000000000000000000000000000000000000000000000007bffffffffffffffffffffffffffffffffffffffffffffffffffffffff19166020820180517bffffffffffffffffffffffffffffffffffffffffffffffffffffffff8381831617835250505050611b3e565b50565b60007f01ffc9a7000000000000000000000000000000000000000000000000000000007bffffffffffffffffffffffffffffffffffffffffffffffffffffffff1916827bffffffffffffffffffffffffffffffffffffffffffffffffffffffff1916149050919050565b60008073ffffffffffffffffffffffffffffffffffffffff166002600084815260200190815260200160002060009054906101000a900473ffffffffffffffffffffffffffffffffffffffff1673ffffffffffffffffffffffffffffffffffffffff1614159050919050565b600033905090565b816004600083815260200190815260200160002060006101000a81548173ffffffffffffffffffffffffffffffffffffffff021916908373ffffffffffffffffffffffffffffffffffffffff160217905550808273ffffffffffffffffffffffffffffffffffffffff16611118836107cb565b73ffffffffffffffffffffffffffffffffffffffff167f8c5be1e5ebec7d5bd14f71427d1e84f3dd0314c0f7b2291e5b200ac8c7c3b92560405160405180910390a45050565b600061116982611031565b6111a8576040517f08c379a000000000000000000000000000000000000000000000000000000000815260040161119f90612f2e565b60405180910390fd5b60006111b3836107cb565b90508073ffffffffffffffffffffffffffffffffffffffff168473ffffffffffffffffffffffffffffffffffffffff16148061122257508373ffffffffffffffffffffffffffffffffffffffff1661120a84610490565b73ffffffffffffffffffffffffffffffffffffffff16145b8061123357506112328185610e9a565b5b91505092915050565b8273ffffffffffffffffffffffffffffffffffffffff1661125c826107cb565b73ffffffffffffffffffffffffffffffffffffffff16146112b2576040517f08c379a00000000000000000000000000000000000000000000000000000000081526004016112a99061302e565b60405180910390fd5b600073ffffffffffffffffffffffffffffffffffffffff168273ffffffffffffffffffffffffffffffffffffffff161415611322576040517f08c379a000000000000000000000000000000000000000000000000000000000815260040161131990612eee565b60405180910390fd5b61132d838383611b67565b6113386000826110a5565b6001600360008573ffffffffffffffffffffffffffffffffffffffff1673ffffffffffffffffffffffffffffffffffffffff16815260200190815260200160002060008282546113889190613263565b925050819055506001600360008473ffffffffffffffffffffffffffffffffffffffff1673ffffffffffffffffffffffffffffffffffffffff16815260200190815260200160002060008282546113df9190613182565b92505081905550816002600083815260200190815260200160002060006101000a81548173ffffffffffffffffffffffffffffffffffffffff021916908373ffffffffffffffffffffffffffffffffffffffff160217905550808273ffffffffffffffffffffffffffffffffffffffff168473ffffffffffffffffffffffffffffffffffffffff167fddf252ad1be2c89b69c2b068fc378daa952ba7f163c4a11628f55a4df523b3ef60405160405180910390a4505050565b606060008214156114e0576040518060400160405280600181526020017f30000000000000000000000000000000000000000000000000000000000000008152509050611640565b600082905060005b600082146115125780806114fb9061337f565b915050600a8261150b91906131d8565b91506114e8565b60008167ffffffffffffffff811115611554577f4e487b7100000000000000000000000000000000000000000000000000000000600052604160045260246000fd5b6040519080825280601f01601f1916602001820160405280156115865781602001600182028036833780820191505090505b5090505b600085146116395760018261159f9190613263565b9150600a856115ae91906133c8565b60306115ba9190613182565b60f81b8183815181106115f6577f4e487b7100000000000000000000000000000000000000000000000000000000600052603260045260246000fd5b60200101907effffffffffffffffffffffffffffffffffffffffffffffffffffffffffffff1916908160001a905350600a8561163291906131d8565b945061158a565b8093505050505b919050565b6000816040516020016116589190612c9e565b6040516020818303038152906040528051906020012060001c9050919050565b61168384848461123c565b61168f84848484611b6c565b6116ce576040517f08c379a00000000000000000000000000000000000000000000000000000000081526004016116c590612eae565b60405180910390fd5b50505050565b606060405180602001604052806000815250905090565b60606116f682611031565b611735576040517f08c379a000000000000000000000000000000000000000000000000000000000815260040161172c9061304e565b60405180910390fd5b600061173f6116d4565b9050600081511161175f576040518060200160405280600081525061178a565b8061176984611498565b60405160200161177a929190612cb5565b6040516020818303038152906040525b915050919050565b600081600001549050919050565b606060008251905060008114156117c95760405180602001604052806000815250915050611959565b600060036002836117da9190613182565b6117e491906131d8565b60046117f09190613209565b905060006020826118019190613182565b67ffffffffffffffff811115611840577f4e487b7100000000000000000000000000000000000000000000000000000000600052604160045260246000fd5b6040519080825280601f01601f1916602001820160405280156118725781602001600182028036833780820191505090505b5090506000604051806060016040528060408152602001613548604091399050600181016020830160005b868110156119165760038101905062ffffff818a015116603f8160121c168401518060081b905060ff603f83600c1c1686015116810190508060081b905060ff603f8360061c1686015116810190508060081b905060ff603f831686015116810190508060e01b9050808452600484019350505061189d565b50600386066001811461193057600281146119405761194b565b613d3d60f01b600283035261194b565b603d60f81b60018303525b508484525050819450505050505b919050565b611978828260405180602001604052806000815250611d03565b5050565b611a128160405160240161199091906130ae565b6040516020818303038152906040527ff5b1bba9000000000000000000000000000000000000000000000000000000007bffffffffffffffffffffffffffffffffffffffffffffffffffffffff19166020820180517bffffffffffffffffffffffffffffffffffffffffffffffffffffffff8381831617835250505050611b3e565b50565b611a1e82611031565b611a5d576040517f08c379a0000000000000000000000000000000000000000000000000000000008152600401611a5490612fae565b60405180910390fd5b80600660008481526020019081526020016000209080519060200190611a84929190611f3f565b505050565b6001816000016000828254019250508190555050565b611b39838383604051602401611ab793929190612e70565b6040516020818303038152906040527fe3849f79000000000000000000000000000000000000000000000000000000007bffffffffffffffffffffffffffffffffffffffffffffffffffffffff19166020820180517bffffffffffffffffffffffffffffffffffffffffffffffffffffffff8381831617835250505050611b3e565b505050565b60008151905060006a636f6e736f6c652e6c6f679050602083016000808483855afa5050505050565b505050565b6000611b8d8473ffffffffffffffffffffffffffffffffffffffff16611d5e565b15611cf6578373ffffffffffffffffffffffffffffffffffffffff1663150b7a02611bb661109d565b8786866040518563ffffffff1660e01b8152600401611bd89493929190612de7565b602060405180830381600087803b158015611bf257600080fd5b505af1925050508015611c2357506040513d601f19601f82011682018060405250810190611c209190612283565b60015b611ca6573d8060008114611c53576040519150601f19603f3d011682016040523d82523d6000602084013e611c58565b606091505b50600081511415611c9e576040517f08c379a0000000000000000000000000000000000000000000000000000000008152600401611c9590612eae565b60405180910390fd5b805181602001fd5b63150b7a0260e01b7bffffffffffffffffffffffffffffffffffffffffffffffffffffffff1916817bffffffffffffffffffffffffffffffffffffffffffffffffffffffff191614915050611cfb565b600190505b949350505050565b611d0d8383611d71565b611d1a6000848484611b6c565b611d59576040517f08c379a0000000000000000000000000000000000000000000000000000000008152600401611d5090612eae565b60405180910390fd5b505050565b600080823b905060008111915050919050565b600073ffffffffffffffffffffffffffffffffffffffff168273ffffffffffffffffffffffffffffffffffffffff161415611de1576040517f08c379a0000000000000000000000000000000000000000000000000000000008152600401611dd890612fce565b60405180910390fd5b611dea81611031565b15611e2a576040517f08c379a0000000000000000000000000000000000000000000000000000000008152600401611e2190612ece565b60405180910390fd5b611e3660008383611b67565b6001600360008473ffffffffffffffffffffffffffffffffffffffff1673ffffffffffffffffffffffffffffffffffffffff1681526020019081526020016000206000828254611e869190613182565b92505081905550816002600083815260200190815260200160002060006101000a81548173ffffffffffffffffffffffffffffffffffffffff021916908373ffffffffffffffffffffffffffffffffffffffff160217905550808273ffffffffffffffffffffffffffffffffffffffff16600073ffffffffffffffffffffffffffffffffffffffff167fddf252ad1be2c89b69c2b068fc378daa952ba7f163c4a11628f55a4df523b3ef60405160405180910390a45050565b828054611f4b9061334d565b90600052602060002090601f016020900481019282611f6d5760008555611fb4565b82601f10611f8657805160ff1916838001178555611fb4565b82800160010185558215611fb4579182015b82811115611fb3578251825591602001919060010190611f98565b5b509050611fc19190611fc5565b5090565b5b80821115611fde576000816000905550600101611fc6565b5090565b6000611ff5611ff0846130fa565b6130c9565b90508281526020810184848401111561200d57600080fd5b61201884828561330b565b509392505050565b60008135905061202f816134c6565b92915050565b600081359050612044816134dd565b92915050565b600081359050612059816134f4565b92915050565b60008151905061206e816134f4565b92915050565b600082601f83011261208557600080fd5b8135612095848260208601611fe2565b91505092915050565b6000813590506120ad8161350b565b92915050565b6000602082840312156120c557600080fd5b60006120d384828501612020565b91505092915050565b600080604083850312156120ef57600080fd5b60006120fd85828601612020565b925050602061210e85828601612020565b9150509250929050565b60008060006060848603121561212d57600080fd5b600061213b86828701612020565b935050602061214c86828701612020565b925050604061215d8682870161209e565b9150509250925092565b6000806000806080858703121561217d57600080fd5b600061218b87828801612020565b945050602061219c87828801612020565b93505060406121ad8782880161209e565b925050606085013567ffffffffffffffff8111156121ca57600080fd5b6121d687828801612074565b91505092959194509250565b600080604083850312156121f557600080fd5b600061220385828601612020565b925050602061221485828601612035565b9150509250929050565b6000806040838503121561223157600080fd5b600061223f85828601612020565b92505060206122508582860161209e565b9150509250929050565b60006020828403121561226c57600080fd5b600061227a8482850161204a565b91505092915050565b60006020828403121561229557600080fd5b60006122a38482850161205f565b91505092915050565b6000602082840312156122be57600080fd5b60006122cc8482850161209e565b91505092915050565b6122de81613297565b82525050565b6122ed816132a9565b82525050565b60006122fe8261313f565b6123088185613155565b935061231881856020860161331a565b612321816134b5565b840191505092915050565b60006123378261314a565b6123418185613166565b935061235181856020860161331a565b61235a816134b5565b840191505092915050565b60006123708261314a565b61237a8185613177565b935061238a81856020860161331a565b80840191505092915050565b600081546123a38161334d565b6123ad8186613177565b945060018216600081146123c857600181146123d95761240c565b60ff1983168652818601935061240c565b6123e28561312a565b60005b83811015612404578154818901526001820191506020810190506123e5565b838801955050505b50505092915050565b6000612422603283613166565b91507f4552433732313a207472616e7366657220746f206e6f6e20455243373231526560008301527f63656976657220696d706c656d656e74657200000000000000000000000000006020830152604082019050919050565b6000612488601c83613166565b91507f4552433732313a20746f6b656e20616c7265616479206d696e746564000000006000830152602082019050919050565b60006124c8601083613177565b91507f576861742068617070656e7320696e20000000000000000000000000000000006000830152601082019050919050565b6000612508602483613166565b91507f4552433732313a207472616e7366657220746f20746865207a65726f2061646460008301527f72657373000000000000000000000000000000000000000000000000000000006020830152604082019050919050565b600061256e601983613166565b91507f4552433732313a20617070726f766520746f2063616c6c6572000000000000006000830152602082019050919050565b60006125ae602c83613166565b91507f4552433732313a206f70657261746f7220717565727920666f72206e6f6e657860008301527f697374656e7420746f6b656e00000000000000000000000000000000000000006020830152604082019050919050565b6000612614600d83613177565b91507f3c2f746578743e3c2f7376673e000000000000000000000000000000000000006000830152600d82019050919050565b6000612654603883613166565b91507f4552433732313a20617070726f76652063616c6c6572206973206e6f74206f7760008301527f6e6572206e6f7220617070726f76656420666f7220616c6c00000000000000006020830152604082019050919050565b60006126ba602a83613166565b91507f4552433732313a2062616c616e636520717565727920666f7220746865207a6560008301527f726f2061646472657373000000000000000000000000000000000000000000006020830152604082019050919050565b6000612720602983613166565b91507f4552433732313a206f776e657220717565727920666f72206e6f6e657869737460008301527f656e7420746f6b656e00000000000000000000000000000000000000000000006020830152604082019050919050565b6000612786602e83613166565b91507f45524337323155524953746f726167653a2055524920736574206f66206e6f6e60008301527f6578697374656e7420746f6b656e0000000000000000000000000000000000006020830152604082019050919050565b60006127ec600283613177565b91507f227d0000000000000000000000000000000000000000000000000000000000006000830152600282019050919050565b600061282c602083613166565b91507f4552433732313a206d696e7420746f20746865207a65726f20616464726573736000830152602082019050919050565b600061286c603183613166565b91507f45524337323155524953746f726167653a2055524920717565727920666f722060008301527f6e6f6e6578697374656e7420746f6b656e0000000000000000000000000000006020830152604082019050919050565b60006128d2602c83613166565b91507f4552433732313a20617070726f76656420717565727920666f72206e6f6e657860008301527f697374656e7420746f6b656e00000000000000000000000000000000000000006020830152604082019050919050565b6000612938600a83613177565b91507f20737461797320696e20000000000000000000000000000000000000000000006000830152600a82019050919050565b6000612978602983613166565b91507f4552433732313a207472616e73666572206f6620746f6b656e2074686174206960008301527f73206e6f74206f776e00000000000000000000000000000000000000000000006020830152604082019050919050565b60006129de602f83613166565b91507f4552433732314d657461646174613a2055524920717565727920666f72206e6f60008301527f6e6578697374656e7420746f6b656e00000000000000000000000000000000006020830152604082019050919050565b6000612a44602783613177565b91507f222c2022696d616765223a2022646174613a696d6167652f7376672b786d6c3b60008301527f6261736536342c000000000000000000000000000000000000000000000000006020830152602782019050919050565b6000612aaa600a83613177565b91507f7b226e616d65223a2022000000000000000000000000000000000000000000006000830152600a82019050919050565b6000612aea602183613166565b91507f4552433732313a20617070726f76616c20746f2063757272656e74206f776e6560008301527f72000000000000000000000000000000000000000000000000000000000000006020830152604082019050919050565b6000612b50600a83613177565b91507f46495253545f574f5244000000000000000000000000000000000000000000006000830152600a82019050919050565b6000612b90601d83613177565b91507f646174613a6170706c69636174696f6e2f6a736f6e3b6261736536342c0000006000830152601d82019050919050565b6000612bd0603f83613177565b91507f222c20226465736372697074696f6e223a20224120686967686c79206163636c60008301527f61696d656420636f6c6c656374696f6e206f66207371756172657320696e20006020830152603f82019050919050565b6000612c36603183613166565b91507f4552433732313a207472616e736665722063616c6c6572206973206e6f74206f60008301527f776e6572206e6f7220617070726f7665640000000000000000000000000000006020830152604082019050919050565b612c9881613301565b82525050565b6000612caa8284612365565b915081905092915050565b6000612cc18285612365565b9150612ccd8284612365565b91508190509392505050565b6000612ce58286612396565b9150612cf0826124bb565b9150612cfc8285612365565b9150612d078261292b565b9150612d138284612365565b9150612d1e82612607565b9150819050949350505050565b6000612d3682612a9d565b9150612d428286612365565b9150612d4d82612bc3565b9150612d598285612365565b9150612d6482612a37565b9150612d708284612365565b9150612d7b826127df565b9150819050949350505050565b6000612d9382612b43565b9150612d9f8284612365565b915081905092915050565b6000612db582612b83565b9150612dc18284612365565b915081905092915050565b6000602082019050612de160008301846122d5565b92915050565b6000608082019050612dfc60008301876122d5565b612e0960208301866122d5565b612e166040830185612c8f565b8181036060830152612e2881846122f3565b905095945050505050565b6000602082019050612e4860008301846122e4565b92915050565b60006020820190508181036000830152612e68818461232c565b905092915050565b60006060820190508181036000830152612e8a818661232c565b9050612e996020830185612c8f565b612ea660408301846122d5565b949350505050565b60006020820190508181036000830152612ec781612415565b9050919050565b60006020820190508181036000830152612ee78161247b565b9050919050565b60006020820190508181036000830152612f07816124fb565b9050919050565b60006020820190508181036000830152612f2781612561565b9050919050565b60006020820190508181036000830152612f47816125a1565b9050919050565b60006020820190508181036000830152612f6781612647565b9050919050565b60006020820190508181036000830152612f87816126ad565b9050919050565b60006020820190508181036000830152612fa781612713565b9050919050565b60006020820190508181036000830152612fc781612779565b9050919050565b60006020820190508181036000830152612fe78161281f565b9050919050565b600060208201905081810360008301526130078161285f565b9050919050565b60006020820190508181036000830152613027816128c5565b9050919050565b600060208201905081810360008301526130478161296b565b9050919050565b60006020820190508181036000830152613067816129d1565b9050919050565b6000602082019050818103600083015261308781612add565b9050919050565b600060208201905081810360008301526130a781612c29565b9050919050565b60006020820190506130c36000830184612c8f565b92915050565b6000604051905081810181811067ffffffffffffffff821117156130f0576130ef613486565b5b8060405250919050565b600067ffffffffffffffff82111561311557613114613486565b5b601f19601f8301169050602081019050919050565b60008190508160005260206000209050919050565b600081519050919050565b600081519050919050565b600082825260208201905092915050565b600082825260208201905092915050565b600081905092915050565b600061318d82613301565b915061319883613301565b9250827fffffffffffffffffffffffffffffffffffffffffffffffffffffffffffffffff038211156131cd576131cc6133f9565b5b828201905092915050565b60006131e382613301565b91506131ee83613301565b9250826131fe576131fd613428565b5b828204905092915050565b600061321482613301565b915061321f83613301565b9250817fffffffffffffffffffffffffffffffffffffffffffffffffffffffffffffffff0483118215151615613258576132576133f9565b5b828202905092915050565b600061326e82613301565b915061327983613301565b92508282101561328c5761328b6133f9565b5b828203905092915050565b60006132a2826132e1565b9050919050565b60008115159050919050565b60007fffffffff0000000000000000000000000000000000000000000000000000000082169050919050565b600073ffffffffffffffffffffffffffffffffffffffff82169050919050565b6000819050919050565b82818337600083830152505050565b60005b8381101561333857808201518184015260208101905061331d565b83811115613347576000848401525b50505050565b6000600282049050600182168061336557607f821691505b6020821081141561337957613378613457565b5b50919050565b600061338a82613301565b91507fffffffffffffffffffffffffffffffffffffffffffffffffffffffffffffffff8214156133bd576133bc6133f9565b5b600182019050919050565b60006133d382613301565b91506133de83613301565b9250826133ee576133ed613428565b5b828206905092915050565b7f4e487b7100000000000000000000000000000000000000000000000000000000600052601160045260246000fd5b7f4e487b7100000000000000000000000000000000000000000000000000000000600052601260045260246000fd5b7f4e487b7100000000000000000000000000000000000000000000000000000000600052602260045260246000fd5b7f4e487b7100000000000000000000000000000000000000000000000000000000600052604160045260246000fd5b6000601f19601f8301169050919050565b6134cf81613297565b81146134da57600080fd5b50565b6134e6816132a9565b81146134f157600080fd5b50565b6134fd816132b5565b811461350857600080fd5b50565b61351481613301565b811461351f57600080fd5b5056fe416e204e465420772f20494420257320686173206265656e206d696e74656420746f2025734142434445464748494a4b4c4d4e4f505152535455565758595a6162636465666768696a6b6c6d6e6f707172737475767778797a303132333435363738392b2fa2646970667358221220297e5ba50981a3f25348036c257cf68d38a4a8bb5de48e9bd614c5a9b086092264736f6c634300080000333c73766720786d6c6e733d27687474703a2f2f7777772e77332e6f72672f323030302f73766727207072657365727665417370656374526174696f3d27784d696e594d696e206d656574272076696577426f783d273020302033353020333530273e3c7374796c653e2e62617365207b2066696c6c3a2077686974653b20666f6e742d66616d696c793a2073657269663b20666f6e742d73697a653a20323470783b207d3c2f7374796c653e3c726563742077696474683d273130302527206865696768743d2731303025272066696c6c3d27626c61636b27202f3e3c7465787420783d273530252720793d273530252720636c6173733d27626173652720646f6d696e616e742d626173656c696e653d276d6964646c652720746578742d616e63686f723d276d6964646c65273e",
	"linkReferences": {},
	"deployedLinkReferences": {}
}